:020000040800F2
:10000000380A002091130008390700083B07000850
:100010003F070008430700084707000800000000EA
:100020000000000000000000000000004D07000874
:100030004B070008000000004F07000851070008A8
:10004000590700085B0700085D0700085F07000804
:1000500061070008630700086507000867070008D4
:10006000690700086B0700086D0700086F070008A4
:100070007107000873070008750700087707000874
:10008000790700087B0700087D070008AB1300080C
:10009000AB130008AB130008AB1300088707000878
:1000A000890700088B0700088D0700088F070008E4
:1000B00091070008930700089507000897070008B4
:1000C000990700089B0700089D0700089F07000884
:1000D000A1070008A3070008A5070008A707000854
:1000E000A9070008AB070008AD070008AF07000824
:1000F000B1070008B3070008B5070008B7070008F4
:10010000B9070008BB070008BD070008BF070008C3
:10011000C1070008C3070008C5070008C707000893
:10012000C9070008CB070008CD070008CF07000863
:10013000DFF80CD001F054F900480047E30500084F
:10014000380A002070B504460D460A48007818B1F8
:10015000E0B200F080F80AE0E1B2074800F0F7FDF5
:1001600000BF4021044800F049FE0028F9D0204695
:1001700070BD0000E80500200038014001B500987E
:1001800000E0401E0028FCDC08BD70B504464FF4BA
:100190008041AF4800F02BFC4FF40051AC4800F018
:1001A00024FC08251AE004F08000802804D1810195
:1001B000A74800F01AFC04E04FF40051A44800F0F6
:1001C00016FC4FF48041A24800F00FFC4FF4804130
:1001D0009F4800F00CFC6006040E6D1E002DE2D15D
:1001E00070BD70B505460C462DB14FF4805198484E
:1001F00000F0FBFB04E04FF48051954800F0F7FB62
:100200004FF40061924800F0F2FB2046FFF7BDFF7B
:100210004FF400618E4800F0E8FB70BD70B50446F5
:100220000D46E0B240F080010020FFF7DAFFE8B2AF
:1002300040F040010020FFF7D4FF70BD70B50546C7
:10024000002404E0295D0120FFF7CBFF641CB4F516
:10025000FC7FF7DB70BD70B5054600210120FFF77C
:10026000C0FF00240AE0A5F1200000EB8000794ADD
:100270001044015D0120FFF7B4FF641C052CF2D38C
:1002800000210120FFF7ADFF70BD10B5044603E06B
:1002900014F8010BFFF7DFFF20780028F8D110BD1C
:1002A00010B5002404E000210120FFF79AFF641C30
:1002B000B4F5FC7FF7D300210846FFF7AFFF10BD70
:1002C00008B501211C2000F061FF4FF48060ADF8FB
:1002D000000003208DF8020010208DF8030069460D
:1002E0005B4800F0D5FA4FF40060ADF80000032041
:1002F0008DF8020010208DF803006946544800F084
:10030000C7FA4FF48050ADF8000003208DF80200CA
:1003100010208DF8030069464D4800F0B9FA4FF4FB
:100320000050ADF8000003208DF8020010208DF879
:1003300003006946464800F0ABFA4FF48040ADF840
:10034000000003208DF8020010208DF8030069469C
:100350003F4800F09DFA4020ADF8000003208DF8E2
:10036000020010208DF8030069463B4800F090FA27
:100370004FF40040ADF8000003208DF8020010207B
:100380008DF803006946324800F082FA0220ADF889
:10039000000003208DF8020010208DF8030069464C
:1003A0002B4800F075FA40212B4800F01EFB02217B
:1003B000274800F01CFB4FF40041254800F015FBD6
:1003C00008BD70B504460D461646FFF779FF4FF499
:1003D00080611F4800F009FB4FF400611C4800F0E9
:1003E00004FB4FF480511A4800F0FFFA4FF48041AB
:1003F000174800F0FAFA4FF40051154800F0F5FAEA
:100400004FF48061124800F0F2FA4FF48061104816
:1004100000F0EBFA21210020FFF7E3FE04F1800059
:10042000C1B20020FFF7DDFE281DC1B20020FFF79A
:10043000D8FE06F11000C1B20020FFF7D2FE202145
:100440000020FFF7CEFE0C210020FFF7CAFE70BD92
:10045000000C0140DE1700080008014010B5FFF74E
:100460001FFF2348FFF7EAFE4FF47A7000F09CF874
:10047000FFF716FF1F48FFF7E1FE1E2000F084F88B
:100480001D48FFF7DBFE1E2000F07EF80D21002046
:10049000FFF7A7FE1E2000F077F80C210020FFF7E1
:1004A000A0FE1E2000F070F84FF47A6000F07CF897
:1004B000FFF7F6FE00210846FFF7B0FE0FA0FFF79A
:1004C000E4FE01214020FFF7A9FE0FA0FFF7DDFEAB
:1004D00003210020FFF7A2FE0CA0FFF7D6FE4FF489
:1004E000FA6000F061F84FF4FA6000F05DF810BDBA
:1004F00000000020F8010020F00300206C696E6805
:100500006B69656E363900002E766E004368756340
:10051000206361632062616E207468616E6820638D
:100520006F6E670010B501210D2000F02FFE012134
:10053000880300F02BFE10BD10B54FF40070664923
:1005400008801820C87003208870644800F0A0F963
:100550004FF48060604908800420C8705F4800F054
:1005600097F94FF4E1305E49086000208880C88028
:10057000088188810C2048815A4800F00AFB01213B
:10058000584800F077FB10BD01B581B00020009005
:10059000554901984843009002E00098401E0090A1
:1005A00000980028F9D10CBD01B5504900980860A9
:1005B00000BF4E4800680028FBD108BD4B480068CA
:1005C00020B14A480068401E48490860704700B59D
:1005D00085B0684600F06DFD45490398086005B098
:1005E00000BDFFF79FFFFFF7A7FFFFF7F0FF012216
:1005F00000213020FFF7E5FE0A20FFF7C5FF0021AC
:100600003C4800F016FA4FF440703349088003204C
:1006100088701020C870384800F03AF937480068F0
:100620004FF47A72B0FBF2F1B1F1807F01D3012077
:100630001DE021F07F40401E4FF0E0225061501736
:100640000F22002807DA13071D0E2D4B00F00F04B0
:10065000241F1D5503E013071C0E2A4B1C5400BF1A
:1006600000204FF0E022906107201061002008B1C7
:1006700000BFFEE72FE01E48016823A000F0EEFE59
:10068000FFF70EFE00210846FFF7C8FD22A0FFF786
:10069000FCFD01214020FFF7C1FD22A0FFF7F5FD81
:1006A00003210020FFF7BAFD1FA0FFF7EEFD0F208A
:1006B000FFF76AFFFFF7D2FE0D210020FFF791FD43
:1006C0000F20FFF761FF0C210020FFF78AFD4FF498
:1006D0007A60FFF769FFCEE7EA05002000080140D5
:1006E000240600200038014080FC0A00F0050020AC
:1006F000F405002000043000000C01400C0600202E
:1007000018ED00E000E400E0535953434C4B202522
:1007100033750A0D000000006C696E686B69656EC8
:10072000363900002E766E004E6F6B6935313130F0
:100730002D4C434400000000704700BFFEE700BF9F
:10074000FEE700BFFEE700BFFEE770477047704757
:1007500010B5FFF733FF10BD704770477047704703
:1007600070477047704770477047704770477047D1
:1007700070477047704770477047704770477047C1
:1007800070477047704770477047704770477047B1
:1007900070477047704770477047704770477047A1
:1007A0007047704770477047704770477047704791
:1007B0007047704770477047704770477047704781
:1007C0007047704770477047704770477047704771
:1007D00010B50446C448844208D10121042000F029
:1007E000EFFC0021042000F0EBFC46E0BF4884420F
:1007F00008D10121082000F0E3FC0021082000F0CE
:10080000DFFC3AE0BA48844208D10121102000F010
:10081000D7FC0021102000F0D3FC2EE0B548844224
:1008200008D10121202000F0CBFC0021202000F085
:10083000C7FC22E0B048844208D10121402000F0EA
:10084000BFFC0021402000F0BBFC16E0AB48844216
:1008500008D10121802000F0B3FC0021802000F0AD
:10086000AFFC0AE0A648844207D10121801500F0C0
:10087000A7FC0021A01500F0A3FC10BD10B50121BC
:10088000084600F09DFC0021012000F099FC10BDFD
:100890002DE9F04102460025002600200023002417
:1008A000002791F803C00CF00F0591F803C00CF07D
:1008B000100CBCF1000F03D091F802C04CEA050502
:1008C00091F800C0BCF1000F31D0146800202BE07B
:1008D0004FF0010C0CFA00F3B1F800C00CEA03066B
:1008E0009E4220D183004FF00F0C0CFA03F7BC435B
:1008F00005FA03FC4CEA040491F803C0BCF1280F8C
:1009000006D14FF0010C0CFA00FCC2F814C00AE04A
:1009100091F803C0BCF1480F05D14FF0010C0CFA5F
:1009200000FCC2F810C0401C0828D1D31460B1F8F4
:1009300000C0BCF1FF0F34DD546800202EE000F150
:10094000080C4FF0010808FA0CF3B1F800C00CEAEB
:1009500003069E4221D183004FF00F0C0CFA03F7DF
:10096000BC4305FA03FC4CEA040491F803C0BCF153
:10097000280F05D100F1080C08FA0CF8C2F8148011
:1009800091F803C0BCF1480F07D100F1080C4FF0FB
:10099000010808FA0CF8C2F81080401C0828CED3D1
:1009A0005460BDE8F0814FF6FF7101800221817033
:1009B0000421C17070470246002093680B400BB1C0
:1009C000012000E0002070470146886880B270472F
:1009D00002460020D3680B400BB1012000E000204C
:1009E00070470146C86880B2704701617047416135
:1009F00070470AB1016100E041617047C160704712
:100A00004FF480320A438261816182618269826926
:100A10007047024600203B4B18684FF68073184021
:100A200040EA02100843374B186070473649C861E6
:100A30007047F0B50A460023002400210025314EFE
:100A40007168C0F3034583B200F44016B6F5401F49
:100A500008D121F070612B4E766826F07066294F20
:100A60007E6012E000F48016B6F5801F06D10326E2
:100A700006FA05F4A14341F0706106E0460D360127
:100A800003FA06F6B14341F0706122B1460D36011A
:100A900003FA06F631431B4E7160F0BD30B50022FB
:100AA0008B071C0F0F2303FA04F2164B08338C102C
:100AB00053F824309343134C08348D1044F82530F8
:100AC00023468C1053F824308C07240F00FA04F4CA
:100AD00023430C4C08348D1044F8253030BD0A49AE
:100AE000DC3108607047000000080140000C014044
:100AF000001001400014014000180140001C01409A
:100B000000200140000001400000204210B50446D2
:100B1000E248844209D10121880300F051FB002101
:100B20004FF4804000F04CFB32E0DD48844209D1B4
:100B30000121480400F051FB00214FF4003000F087
:100B40004CFB25E0D748844209D10121880400F0FC
:100B500044FB00214FF4802000F03FFB18E0D24816
:100B6000844209D10121C80400F037FB00214FF471
:100B7000002000F032FB0BE0CC48844208D1012178
:100B8000080500F02AFB00214FF4801000F025FB3F
:100B900010BD2DE9F04786B005460E460024A2465A
:100BA00000BF00BF0027B08900B100BF2F462C8ACC
:100BB0004CF6FF700440F08804432C82AC894EF65A
:100BC000F3100440B0883189084371890843044315
:100BD000AC81AC8A4FF6FF400440B0890443AC823C
:100BE00001A800F066FAAD48874202D1DDF810A0F6
:100BF00001E0DDF80CA00AEBCA0000EB0A10316836
:100C00008900B0FBF1F86420B8FBF0F00401200982
:100C1000642101FB1089322000EB0910B0FBF1F0D8
:100C200000F00F0004432C8106B0BDE8F0874FF4BC
:100C30001651016000218180C18001810C21418118
:100C400000218181704710B502460020108A4FF2C2
:100C5000FF0318400B884C8823438C882343CC889F
:100C600023431843108210BD002101804180818000
:100C7000C180704721B1828942F40052828104E030
:100C800082894DF6FF731A4082817047F0B50346A2
:100C9000002400260025002040F66A17B94200D142
:100CA00000BF1846C1F3421401F01F06012707FADE
:100CB00006F5012C01D10C3004E0022C01D11030DA
:100CC00000E014301AB107682F43076002E007689C
:100CD000AF430760F0BD1AB1838A0B43838202E001
:100CE000838A8B4383827047028A4FF6F0731A40DF
:100CF0000282028A0A430282704782894FF2FF739E
:100D00001A40828182890A438281704721B1828997
:100D100042F00202828104E082894FF6FD731A409C
:100D200082817047028A4FF6DF731A400282028A7C
:100D30000A430282704721B1028A42F48042028251
:100D400004E0028A4BF6FF731A4002827047C1F337
:100D500008028280704701468888C0F30800704707
:100D6000818941F0010181817047028BD2B20283F7
:100D7000028B42EA012202837047028B02F47F4217
:100D80000283028B0A430283704721B1828A42F0B8
:100D90002002828204E0828A4FF6DF731A40828248
:100DA000704721B1828A42F01002828204E0828A76
:100DB0004FF6EF731A408282704721B1828A42F067
:100DC0000802828204E0828A4FF6F7731A40828218
:100DD0007047828A4FF6FB731A408282828A0A43E6
:100DE0008282704721B1828A42F00202828204E04C
:100DF000828A4FF6FD731A408282704702460020B5
:100E0000B1F5007F00D100BF13880B400BB101206A
:100E100000E00020704701F40072B2F5007F00D1BD
:100E200000BFCA430280704770B502460024002309
:100E30000025002040F66A16B14200D100BFC1F380
:100E4000421501F01F03012606FA03F3012D02D11A
:100E50009689334006E0022D02D1168A334001E024
:100E6000968A33400C12012606FA04F416883440A0
:100E700013B10CB1012000E0002070BD10B50022BC
:100E8000002340F66A14A14200D100BF0A120124D7
:100E90009440A3B2DC43048010BD00000038014040
:100EA0000044004000480040004C0040005000401A
:100EB000DF48006840F00100DD49086008464068EE
:100EC000DC490840DA49486008460068DA490840C9
:100ED000D74908600846006820F48020086008466A
:100EE000406820F4FE0048604FF41F00886070479F
:100EF000CF49096821F48031CD4A11601146096853
:100F000021F480211160B0F5803F03D0B0F5802F2F
:100F10000ED106E0C649096841F48031C44A116027
:100F200007E0C349096841F4A021C14A116000E00B
:100F300000BF00BF704710B501460022002300200B
:100F40004A11012A02D1BA4C236806E0022A02D1D2
:100F5000B74C236A01E0B64C636A01F01F0201241A
:100F600094401C400CB1012000E0002010BD38B5B9
:100F7000002000900024002500BF3120FFF7DBFF98
:100F800005460098401C00900098B0F5A06F01D075
:100F9000002DF2D03120FFF7CEFF08B1012400E090
:100FA0000024204638BD01460020A14A106820F0E8
:100FB000F80040EAC10010607047A049086070471F
:100FC000024600209A4B586820F47C1042EA010344
:100FD0001843974B58607047984908667047014618
:100FE0000020934A506820F0030008435060704787
:100FF0008F48406800F00C007047014600208C4A82
:10100000506820F0F000084350607047014600200F
:10101000874A506820F4E0600843506070470146FA
:101020000020834A506820F4605040EAC1005060BC
:10103000704729B17E4A527A02437D4B5A7204E0CE
:101040007B4A527A82437A4B5A7270477B49D83135
:101050000860704701460020754A506820F44040FF
:101060000843506070470021714A20321170704A65
:1010700082F82010012802D004280AD104E00121BE
:101080006B4A2032117005E00521694A2032117047
:1010900000E000BF00BF70476949086070476449BD
:1010A000096A0143624A1162704765494439086020
:1010B000704730B500210022002400235C4D6D688C
:1010C00005F00C0121B1042905D0082923D105E040
:1010D0005C4D056022E05B4D05601FE0544D6D687E
:1010E00005F47012524D6D6805F48034022505EB4D
:1010F00092421CB9544D554305600BE04C4D6D6850
:1011000005F400351DB1504D5543056002E04D4DCD
:101110005543056002E04B4D056000BF00BF444DE4
:101120006D6805F0F0010909484D6B5C0568DD400C
:1011300045603F4D6D6805F4E061090A434D6B5C05
:101140004568DD4085603A4D6D6805F46051C90A17
:101150003E4D6B5C4568DD40C560354D6D6805F4FE
:101160004041890B3A4D6B5CC568B5FBF3F50561F1
:1011700030BD29B12E4A526902432D4B5A6104E019
:101180002B4A526982432A4B5A61704729B1284A37
:1011900092690243264B9A6104E0254A9269824390
:1011A000234B9A61704729B1214AD2690243204BEF
:1011B000DA6104E01E4AD26982431D4BDA6170474E
:1011C00029B11B4AD2680243194BDA6004E0184A7D
:1011D000D2688243164BDA60704729B1144A12690B
:1011E0000243134B1A6104E0114A12698243104B07
:1011F0001A61704712494039086070470F49C86446
:1012000070470B49C87170470948406A40F08070C8
:1012100007494862704701460020054A92680A4023
:101220000AB1012000E00020704701498872704730
:10123000001002400000FFF8FFFFF6FE00004242EF
:101240008004424200127A0000093D00F8050020A7
:10125000080600200CB50020019000904848006866
:1012600040F480304649086000BF4548006800F4FB
:10127000003000900198401C0190009818B9019826
:10128000B0F5A06FF1D13E48006800F4003010B115
:101290000120009001E0002000900098012844D136
:1012A0003848006840F01000364908600846006879
:1012B00020F0030008600846006840F00200086063
:1012C0002F4840682E4948600846406848600846F4
:1012D000406840F4806048600846406820F47C1014
:1012E00048600846406840F4E810486008460068D6
:1012F00040F08070086000BF2148006800F0007076
:101300000028F9D01E48406820F003001C494860BE
:101310000846406840F00200486000BF1848406836
:1013200000F00C000828F9D101E000BFFEE70CBD79
:1013300010B5FFF78FFF10BD10B51148006840F0E1
:1013400001000F490860084640680F4908400C49F1
:101350004860084600680D49084009490860084689
:10136000006820F4802008600846406820F4FE00F1
:1013700048604FF41F008860FFF7DAFF10BD704728
:1013800000100240002002400000FFF8FFFFF6FEC0
:101390000648804706480047FEE7FEE7FEE7FEE70F
:1013A000FEE7FEE7FEE7FEE7FEE7FEE7391300088B
:1013B0003101000830B50B460146002020220124EF
:1013C00009E021FA02F59D4205D303FA02F5491B13
:1013D00004FA02F52844151EA2F10102F1DC30BD29
:1013E000064C074D06E0E06840F0010394E8070072
:1013F00098471034AC42F6D3FEF79EFEC0190008A1
:10140000E019000870B58C1810F8015B15F007039F
:1014100001D110F8013B2A1106D110F8012B03E08D
:1014200010F8016B01F8016B5B1EF9D12B0705D495
:101430000023521E0DD401F8013BFAE710F8013BDE
:10144000CB1A921C03E013F8015B01F8015B521EFA
:10145000F9D5A142D8D3002070BD00000FB4054BD0
:1014600010B503A9044A029800F018F810BC5DF802
:1014700014FB0000450100081006002002E008C827
:10148000121F08C1002AFAD170477047002001E0FE
:1014900001C1121F002AFBD1704700002DE9FF4F48
:1014A0008BB088460546002606E025280BD0DDE9EE
:1014B0000D1290476D1C761C28780028F5D10FB0CE
:1014C0003046BDE8F08F0024A146A2460122AE4975
:1014D00000E0044315F8013F203B02FA03F0084204
:1014E000F7D128782A2810D06FF02F022878A0F1A1
:1014F0003001092915D809EB890102EB410144F0BB
:10150000020400EB01096D1CF0E758F8041B5FEAC8
:10151000010903D544F40054C9F1000944F0020460
:101520006D1C28782E2817D115F8010F44F00404FB
:101530002A280ED06FF02F022878A0F13001092957
:101540000AD80AEB8A0102EB410100EB010A6D1C8B
:10155000F2E758F804AB6D1C28786C280FD006DC35
:101560004C2817D068280DD06A2814D104E07428BC
:1015700010D07A280FD10DE044F400140AE044F4AE
:10158000801401E044F440146978814202D104F5EA
:1015900080146D1C6D1C2878692865D006DC002835
:1015A0008DD0632827D0642806D15DE06E2808D04E
:1015B00073282AD0752877D0DDE90D129047761C64
:1015C000E0E0C4F30250022809D003280DD0D8F877
:1015D000001004280DD00E6008F10408D2E0D8F8FD
:1015E0000010F217C1E90062F6E7D8F800100E808B
:1015F000F2E70E70F0E718F8041B8DF800100020D9
:101600008DF80100EB46012003E058F804BB4FF0D1
:10161000FF3061074FF0000701D40AE07F1C5745F7
:101620000DDA8742FADB1BF807100029F6D106E035
:101630007F1C8742FCDB1BF807100029F8D1DDE98D
:101640000D23A9EB07008146214600F0B1F8304494
:10165000C61904E0DDE90D121BF8010B90477F1E4F
:10166000F8D22146484688E058F8040BC4F30251EA
:101670004FF00A0B032900D100B2042900D140B277
:10168000002802DA40422D2102E0210505D52B2158
:101690008DF82410012104E006E0E10710D020219C
:1016A000F6E708AF089113E058F8040BC4F30251B1
:1016B0004FF00A0B032900D180B2042900D1C0B237
:1016C0000021EEE75946FFF775FE303107F8011D9E
:1016D0000028F7D1ADEB070000F1200B600702D521
:1016E00024F4803401E04FF0010ADA4502DDAAEB70
:1016F0000B0000E00020824600EB0B01089801443B
:10170000A9EB01000A90E00306D4DDE90D23214690
:101710000A9800F04DF806444FF0000908E009A9C6
:1017200011F80900DDE90D12904709F10109761C55
:1017300008998945F3DBE0030CD5DDE90D2321464B
:101740000A9800F035F8064404E0DDE90D12302077
:101750009047761CBAF10001AAF1010AF5DC05E018
:10176000DDE90D1217F8010B9047761CBBF1000163
:10177000ABF1010BF4DC0A982146DDE90D2300F002
:1017800005F806446D1C97E6092801002DE9F04193
:10179000044600251E461746880404D405E0394651
:1017A0002020B0476D1C641EF9D52846BDE8F081A5
:1017B0002DE9F041044600251E469046C80301D598
:1017C000302700E02027880404D505E0414638464C
:1017D000B0476D1C641EF9D52846BDE8F0810000B5
:1017E00000000000005F00000007000700147F14E5
:1017F0007F14242A7F2A1223130864623649552253
:10180000500005030000001C2241000041221C0082
:1018100014083E081408083E08080050300000086C
:1018200008080808006060000020100804023E510B
:1018300049453E00427F40004261514946214145B1
:101840004B311814127F1027454545393C4A494908
:101850003001710905033649494936064949291EAF
:1018600000363600000056360000081422410014ED
:1018700014141414004122140802015109063249BB
:1018800079413E7E1111117E7F494949363E4141E1
:1018900041227F4141221C7F494949417F09090971
:1018A000013E4149497A7F0808087F00417F410095
:1018B0002040413F017F081422417F404040407F4B
:1018C000020C027F7F0408107F3E4141413E7F09A8
:1018D0000909063E4151215E7F09192946464949B9
:1018E000493101017F01013F4040403F1F2040201E
:1018F0001F3F4038403F631408146307087008070F
:101900006151494543007F41410002040810200015
:1019100041417F0004020102044040404040000178
:1019200002040020545454787F48444438384444D6
:101930004420384444487F3854545418087E0901E0
:10194000020C5252523E7F0804047800447D40004D
:101950002040443D007F1028440000417F40007C2F
:10196000041804787C0804047838444444387C140F
:10197000141408081414187C7C08040408485454EF
:101980005420043F4440203C4040207C1C20402008
:101990001C3C4030403C44281028440C5050503CE3
:1019A0004464544C44000836410000007F000000AD
:1019B00041360800100808100878464146780000B3
:1019C000E0190008000000201406000004140008BC
:1019D000681C000814060020240400008C14000871
:1019E0000119680F80C0E07030181C0C0C06060747
:1019F000070301000F2B0707070E061C1C38707029
:101A0000E0E0C080900FE0F03CCE6733180808C8D3
:101A1000F8F0E0C01DC0703818153C08F8F0160F3B
:101A20002401070F3CF8E05814FCFF0F2C0C7F60DA
:101A3000012A6101827F4914491663637E042407E9
:101A4000FFF8343FFFF00E180808FC8C0C015AF820
:101A5000BF0426E0FF1F19D51A70D54E070C386059
:101A6000C0DC1FC0E0F0F0F0F80129F72680C0309C
:101A7000180F00082C80C0703C1F0701380F0103AD
:101A8000060E1C18383173626664C7CF0108101740
:101A9000C7C7C7676363713038181C0C0603034F50
:101AA0001009070D19FFFF19CDC713E0E013F8F86F
:101AB00013FEFEA3FFFF2EC0E02020E0E70714186E
:101AC0003CE4E43C181DFE828301016C7D017D0332
:101AD00029409B0101037581C0C18129EC2DF9FFCB
:101AE000FFF9083DF8F8FFFF07280C808C9EF2F202
:101AF0009E8C80C060606C39D2E90101104E87CCA9
:101B0000CC8703012AFFB2200CEEEEEC0C0CFF6038
:101B1000606EEEEE1912000D2831313179CDCD799C
:101B200001038686037816070C0C07C3E33F3FE3E7
:101B3000C3033F3F3F3E3E3EFEFE3E3E085CBFBF0E
:101B40000601052D0F19190F89C11EC0E03F3FE0A6
:101B5000E529080B2FE6C64961147C4040127C1C25
:101B60007C0810051A10051701017D1128444E7CD0
:101B7000017D55551711157C5454741C5C54540B3D
:101B800001262AE0011999092228012866F9FBFBA0
:101B9000FBF91F80C0E0F0F078012B383C012D7C70
:101BA0007C7CFC013ABC0E1AFF013909051F3C3C44
:101BB0003838292C32FF1BF0FE08F30701580801C2
:101BC000031FFFFFFEF82801282A3F2D2811E0807F
:101BD00080818FBFBFFFFCF0E0E0C0808080B51C3B
:101BE0008080C0B85FF8FF7F3F1F0754291B390171
:101BF00001202815F03133E7C707F7F7F717E7F7A4
:101C0000B7A7F7F7C7E727B708100BE787F3F30382
:101C10000160E0F0B0001220F0F0C0F0F001E3232A
:101C20003737E7C7F7F7B7E7471E0706020303068C
:101C3000180E060206060303070701030607070836
:101C400011190D212C020607151129101A022A1A42
:101C5000012101252D0102030404100906070809CA
:081C60000204060844A24A0434
:04000005080013914B
:00000001FF
